:400000000080002011000000BD000000BD00000080B500AF47F2BC63C4F2000344F2FA62C4F2000212681A6000F016FC00F04AF810B5054C237833B9044810B10448AFF396
:4000400000800121217010BD2881FF1F00000000D047000008B5064B1BB106480649AFF300800648016811B1054A02B1904708BD00000000D04700002C81FF1F0881FF1F69
:400080000000000080B500AF01F004FD0346002B09D044F2FA63C4F200031B78DBB203F0C003402B06D144F2FA63C4F200034FF040021A7000F04EFBFEE700BF80B400AFA2
:4000C000FEE700BF80B586B000AF40F20103C0F200037B6144F63823C0F200033B6140F20103C0F200037B6144F63823C0F200033B613BE03B691B68FB603B695B68BB60C9
:400100003B699B683B604FF000037B600FE0FB681A68BB681A60BB6803F10403BB60FB6803F10403FB607B6803F104037B607A683B689A42EBD13B69DB683B604FF0000363
:400140007B600BE0BB684FF000021A60BB6803F10403BB607B6803F104037B607A683B689A42EFD13B6903F110033B617B69002B0CBF00230123DBB27A6902F1FF327A61F1
:40018000002BB7D104F0E8FAFFF77CFFFEE700BF80B582B000AF4EF60C53CEF200034FF48062C0F2FA521A604EF61453CEF200034EF61452CEF20002126842F400721A6012
:4001C0004FF000037B6019E07B68032B07D840F20003C0F200037A6853F8223003E040F2BD03C0F2000348F20002C1F6FF72796842F821307B6803F101037B607B682F2B43
:40020000E2D947F2BC63C4F200031B78DAB248F20413C1F6FF731A704EF60853CEF2000348F20002C1F6FF721A6000F039F948F20013C1F6FF734FF000021A6007F1080735
:40024000BD4680BD80B582B000AF7860396078684FF000013A6804F0AEFA07F10807BD4680BD00BF80B584B000AFF860B9607A60F868B9687A6804F095FA07F11007BD46F8
:4002800080BD00BF80B584B000AFF860B9607A60F868B9687A6804F085FA07F11007BD4680BD00BF80B483B000AF0346FB71FEE780B487B000AF786039604FF000033B61E2
:4002C0004FF000037B612CE07B694FEA83037A68D3181B68BB60BB68FB73BB6823F0FF03BB6017E03B694FEA43033A68D3181B781A46BB68D3183A694FEA420239688A18D7
:4003000052781A703B6903F101033B61FB7B03F1FF33FB73FB7B002BE4D17B6903F101037B617B690F2BCFD907F11C07BD4680BC704700BF80B582B000AF4FF48643C4F2AB
:4003400000034FF006021A704FF48443C4F200034FF052021A7044F2A163C4F2000340F20F12C4F600121278D2B21A7044F22223C4F200034FF4E1621A8044F22023C4F29C
:40038000000341F251221A804FF00003FB704FF019037B6019E0FB784FEA4303DAB244F22523C4F200031B78DBB203F00103DBB21343DBB203F00303FB704FF4F07000F0EB
:4003C0007FFF7B6803F1FF337B607B68002B02D0FB78032BDFD17B68002B03D14FF00300FFF760FF44F20403C4F200034FF480721A8044F20403C4F200034FF007021A7064
:4004000044F20603C4F200034FF000021A7044F20803C4F200034FF048021A7044F20403C4F200034FF000021A7044F20903C4F200034FF000021A7044F20103C4F2000372
:400440004FF002021A7007F10807BD4680BD00BF80B483B000AF40F2CF13C4F600131B78FB7145F66E03C4F20003FA7902F00702D2B21A7045F66F03C4F20003FA794FEAC0
:400480001212D2B21A7045F67603C4F200034FF044021A7007F10C07BD4680BC704700BF80B582B000AF72B64FF00003FB7119E0FA7913464FEA43039B184FEA430344F236
:4004C000D472C0F200029B183B603B681A683B689B889BB210461946FFF7B4FEFB7903F10103FB71FB79062BE2D944F60000C0F2000044F64001C0F20001FFF7D9FE45F2C9
:400500000303C4F2010345F20302C4F201021278D2B242F00202D2B21A7045F21303C4F2010345F21302C4F201021278D2B242F00202D2B21A7044F2A033C4F2000344F25E
:40054000A032C4F200021278D2B242F04002D2B21A7044F2C233C4F2000344F2C232C4F200021278D2B242F01002D2B21A7045F2C010C4F2000044F68801C0F200014FF0C9
:400580000A02FFF77FFE45F2F010C4F2000044F69401C0F200014FF00A02FFF773FE45F24010C4F2000044F6A001C0F200014FF00A02FFF767FE44F22233C4F2000344F2B0
:4005C0002232C4F200021278D2B242F00802D2B21A704FF49043C4F200034FF001021A70FFF7A8FE4FF49043C4F200034FF081021A70FFF72DFF44F2B030C4F2000044F221
:40060000A031C4F200014FF00E02FFF72BFE07F10807BD4680BD00BF80B485B000AF78600B467B804FF6FF73FB817B883B817B88002B04D1FB896FEA0303FB8142E03A8949
:400640007B88D31A7A68D3181B78BB814FF00003FB721DE0FA89BB89534003F00103002B0AD0FB894FEA53039AB248F20843CFF6FF735340FB8103E0FB894FEA5303FB8150
:40068000BB894FEA5303BB81FB7A03F10103FB72FB7A072BDED97B8803F1FF337B807B88002BCCD1FB896FEA0303FB81FB89BB81FB894FEA03239AB2BB894FEA13239BB2B6
:4006C0001343FB81FB89184607F11407BD4680BC704700BF80B485B000AF786039604FF00003FB730AE03B6803F1FF333B607A683B68D3181A78FB7BD318FB733B68002B58
:40070000F1D1FB7B184607F11407BD4680BC704780B485B000AF786039604FF00003FB730EE03B6803F1FF333B607A683B68D31803F1804303F500431A78FB7BD318FB73CC
:400740003B68002BEDD1FB7B184607F11407BD4680BC704780B5CAB000AF00F00DFE0346002B03D04FF0000000F006FF3B46184600F014FE0346002B03D04FF0000000F0E5
:40078000FBFE48F21013C1F6FF731B681B684FF000001946FFF79EFF034687F8273148F20C13C1F6FF731B681B7897F82721D31A87F8273197F82731C3F1000387F82731BB
:4007C00048F20C13C1F6FF731B681B7897F827219A4207D148F21013C1F6FF731B681B68002B03D14FF0000000F0C6FE4FF0000000F05CF8C7F8200144F2FA63C4F20003A9
:400800001B78DBB203F0C003402B03D0D7F82031002B0AD044F2FA63C4F200034FF000021A704FF0000000F0D3F84FF0010000F0CFF800F005F807F59477BD4680BD00BF84
:4008400080B500AF44F2FA63C4F200034FF080021A7000F09DFE80BD80B500AF44F2FA63C4F200031B78DBB203F0C003802B19D144F2FA63C4F200034FF000021A704FF044
:4008800001004FF0000100F027FC0346002B09D04FF001004FF0000100F01EFC0346184600F002F880BD00BF004700BF90B587B000AF0346FB71FB794FF00200194600F096
:4008C0000BFC034603F101034FEA0324FB794FF00300194600F000FC0346E318FB604FF00003FB744FF00003BB74FB794FF00200194600F0F1FB034603F101034FEA0323FE
:400900007B6113E07B691B78FB72FB7A002B05D0FB7AFF2B02D04FF00103FB74BA7CFB7AD318BB747B6903F101037B617A69FB689A42E7D3FB794FF00200194600F0CCFB48
:40094000034603F101034FEA03234FEAD3037B61FA684FF6C073C0F203039A4203D0FB684FEAD30301E04FF40043FB600BE07B6903F190431B78DAB2BB7CD318BB747B698D
:4009800003F101037B617A69FB689A42EFD3BB7CC3F10003BB74FA7913464FEA03639B1A4FEA032303F57F3303F570731B78DBB2BA7C9A4202D1FB7C002B02D14FF006039C
:4009C00001E04FF00003184607F11C07BD4690BD80B5ADF56C7D00AF024607F107031A704FF00003A7F8AA334FF00003A7F8A8334FF00A0387F8A7334FF0000387F8A6330F
:400A00004FF0000387F8A53301F054F862B64FF0000387F8AD3307F107031B78002B03D007F107031B7801E04FF0FF0307F5187107F28E3208464FF4967101F097F8C7F8C8
:400A40009C0307F107031B78002B05D097F8A73303F1FF3387F8A73397F8A733002B03D0D7F89C33002BD6D1D7F89C33002B40F0CA82B7F88E33062B04D907F518731B78A6
:400A8000012B04D04FF0040387F8AD334EE007F51873DB784FEA03239AB207F518739B781343A7F8AA33B7F8AA3303F1050307F51872D35C4FEA03239AB2B7F8AA3303F10A
:400AC000040307F51871CB5C1343A7F89A33B7F8AA3303F10702B7F88E339A4204D94FF0030387F8AD3321E0B7F8AA3303F1060307F51872D35C172B04D04FF0040387F811
:400B0000AD3313E0B7F8AA3303F104039BB207F5187210461946FFF77FFD0346B7F89A239A4203D04FF0080387F8AD334FF00003A7F8AE3397F8AD33002B40F0588207F5F2
:400B400018731B7987F899334FF0040387F8AD3307F518735B78A3F131030A2B00F2358201A252F823F000BF950B0000D70B0000CB0F0000410C0000AB0D0000CB0F00006C
:400B8000BF0D00001B0E0000410C00006D0E0000A90F000097F8A533012B40F01B82B7F8AA33002B40F016824FF00000FFF77EFE0346002B14BF00230123DBB21A4607F5B9
:400BC00018731A714FF00103A7F8AE334FF0000387F8AD33FEE197F8A533012B40F0FC81B7F8AA33012B40F0F78197F89933032B00F2F2814FF00003A7F89633B7F89633EC
:400C0000DAB207F518731A71B7F896334FEA13239BB2DAB207F518735A7107F518734FF0FF029A7107F518734FF00302DA714FF00403A7F8AE334FF0000387F8AD33CBE109
:400C400007F518735B78342B25D197F8A533012B40F0CD81B7F8AA33032B40F0C88197F899333F2B09D997F899335BB2002B04DB4FF01003A7F8A83303E04FF49073A7F8D4
:400C8000A833B7F8A83307F59A7210464FF000011A4603F090FD97F8A533012B40F09E81B7F8AA33022B40F29981B7F8A83307F59A72D118B7F8AA33A3F1030307F5187243
:400CC00002F10702084611461A4603F06BFDB7F8A823B7F8AA33D3189BB2A3F10303A7F8A83397F899333F2B0BD997F899335BB2002B06DB00F01EFC4FF01003A7F8AA3351
:400D000003E04FF49073A7F8AA33B7F8A823B7F8AA339A4240D107F518739B794FEA03239AB207F518735B791343A7F8A83397F899333F2B1BD897F8A633002B17D107F17F
:400D40000C0318464FF000014FF4907203F033FD07F10C034FF003004FF0FF011A464FF4907300F057FB4FF0010387F8A63397F89903B7F8A81307F59A72B7F8AA3300F03A
:400D800049FB0346002B02D04FF00A0301E04FF0000387F8AD3303E04FF0030387F8AD334FF00003A7F8A83318E197F8A533012B40F016814FF00003A7F8A83324E197F8F5
:400DC000A533012B40F00E81B7F8A823B7F8AA33D318B3F5967F1BD84FF0000387F8AD33B7F8A83307F59A72D118B7F8AA3307F5187202F10402084611461A4603F0D2FCA2
:400E0000B7F8A823B7F8AA33D318A7F8A833E9E04FF0030387F8AD33E4E0B7F8AA33002B40F0E28007F5967244F6AC03C0F2000393E8030082E803004FF0010387F8A533A6
:400E40004FF00803A7F8AE33B7F8AE3307F5187202F1040107F59672084611461A4603F0A1FC4FF0000387F8AD33BDE097F8A533012B40F0BB80B7F8AA33032B40F0B680A5
:400E800007F518739B794FEA03239AB207F518735B791343A7F8943397F899333F2B14D997F899335BB2002B0FDBB7F894334FEA0313C7F89033D7F890034FF01001FFF7B7
:400EC00027FC034687F8A43313E097F899334FEA0322B7F89433D3184FEA0323C7F89033D7F890034FF48071FFF7F4FB034687F8A43397F899333F2B27D897F8993303F511
:400F000010334FEA0322B7F89433D3184FEA4313C7F890334FF00003A7F8A23311E0B7F8A223D7F89033D3181B78DAB297F8A433D31887F8A433B7F8A23303F10103A7F825
:400F4000A233B7F8A2331F2BE9D997F89933032B19D1B7F89433FF2B15D14FF6D073C0F203031B78DBB297F8A423D31A87F8A4334FF6D173C0F203031B78DBB297F8A42363
:400F8000D31A87F8A43397F8A433C3F10003DAB207F518731A714FF0000387F8AD334FF00103A7F8AE3321E04FF00000FFF77EFC0346002B06D144F2FA63C4F200034FF049
:400FC00080021A7000F0E4FA11E04FF0050387F8AD330CE000BF0AE000BF08E000BF06E000BF04E000BF02E000BF00E000BF97F8AD1307F51872B7F8AE33084611461A4693
:4010000000F012F800E000BF07F107031B78002B3FF4FDAC97F8A533012B3FF4F8AC07F56C77BD4680BD00BF80B584B000AF396013460246FA71BB803B684FF001021A70CC
:401040003B6803F10103FA791A703B6803F10203BA88D2B21A703B6803F10303BA884FEA122292B2D2B21A70BB8803F104039BB238681946FFF7D0FA0346FB81BB8803F108
:4010800004033A68D318FA89D2B21A70BB8803F105033A68D318FA894FEA122292B2D2B21A70BB8803F106033A68D3184FF017021A70BB8803F107039AB207F10403386822
:4010C00011461A464FF0960300F00EFD0346184607F11007BD4680BD80B586B000AF02460B46FA71BB714FF00203FB74FB7903F1FF33062B74D801A252F823F053110000F8
:40110000731100008D11000039110000AD110000C711000019110000BA7913464FEA03639B1A4FEA032303F57F3303F576737B614FF00403FB745BE0BA7913464FEA0363C2
:401140009B1A4FEA032303F57F3303F2D2337B614EE0BA7913464FEA03639B1A4FEA032303F57F3303F2C1337B614FF00403FB743EE0BA7913464FEA03639B1A4FEA0323ED
:4011800003F57F3303F2C5337B6131E0BA7913464FEA03639B1A4FEA032303F57F3303F2C9337B614FF00403FB7421E0BA7913464FEA03639B1A4FEA032303F57F3303F261
:4011C000D6337B6114E0BA7913464FEA03639B1A4FEA032303F57F3303F575737B6107E04FF0000000F0C8F94FF000037B6100BFFB7C022B0ED17B6903F101031B78DBB23E
:40120000FB607B691B78DBB24FEA0323FA681343FB6021E07B6903F103031B78DBB2FB607B6903F102031B78DBB24FEA0323FA681343FB607B6903F101031B78DBB24FEADF
:401240000343FA681343FB607B691B78DBB24FEA0363FA681343FB60FB79022B04D0032B0FD0012B0DD021E0FB689BB24FEA03239AB2FB684FEA13239BB213439BB2FB605B
:4012800015E0FB684FEA1362FB6803F47F034FEA13231A43FB6803F47F434FEA03231A43FB684FEA03631343FB6000E000BFFB68184607F11807BD4680BD00BF000000007F
:4012C0000230800800F0058000BF013800467FF4FCAF7047EFF3108072B6704780F31088704700BFAFF3008080B582B000AF00F0F1F94FF0FF337B6000F054FB0346002BC9
:4013000031D14FF0010000F007FB0346072B27D148F25810C1F6FF704FF0020100F006FA0346022B12D14FF000037B6003E04FF0010000F065F944F22273C4F200031B780E
:40134000DBB203F00203002BF1D009E044F22273C4F200031B78DBB203F00203002BD7D000F064FB02E04FF004037B607B68184607F10807BD4680BD80B582B000AFFFF7BF
:40138000B3FF78607B68002B02D1FFF7ADFF78607B68184607F10807BD4680BD80B584B000AF78604FF00003FB6000F093F97B68002B0DD148F24413C1F6FF731A6848F255
:4013C0004413C1F6FF731A604FF00103FB601AE000F0E8FA0346002B0DD048F24413C1F6FF731A6848F24413C1F6FF731A604FF00403FB6007E048F24413C1F6FF737A68A4
:401400001A6000F013FBFB68184607F11007BD4680BD00BF80B586B000AFBA600246FA730A46BA81FB8000F0BDFA0346002B78D1FA7BFB881046B9681A4600F0A9F97861D8
:401440007B69072B6AD103E04FF0010000F0D8F844F22273C4F200031B78DBB203F00203002BF1D044F22273C4F200031B78DBB203F00203002B0ED044F22273C4F2000387
:401480001B78DBB24FEA9303DBB2002B03D14FF000037B6102E04FF0FF337B617B69002B3CD148F25813C1F6FF731A7848F25813C1F6FF735B78F87BB98900F0C7F9786109
:4014C0007B69072B2AD103E04FF0010000F098F844F22273C4F200031B78DBB203F00203002BF1D044F22273C4F200031B78DBB203F00203002B0ED044F22273C4F2000387
:401500001B78DBB24FEA9303DBB2002B03D14FF000037B6102E04FF0FF337B6100F086FA02E04FF004037B617B69184607F11807BD4680BD80B400AF44F2AC33C4F2000325
:4015400044F2AC32C4F200021278D2B242F01002D2B21A7044F2BC33C4F2000344F2BC32C4F200021278D2B242F01002D2B21A70BD4680BC704700BF80B483B000AF034611
:40158000FB7101BE07F10C07BD4680BC704700BF80B400AF44F2F663C4F2000344F2F662C4F200021278D2B242F00102D2B21A70BD4680BC704700BF80B582B000AF7860DB
:4015C0000BE048F22013C1F6FF731B681846FFF777FE7B68A3F500437B607B68B3F5004FEFD848F21813C1F6FF731B687A6802FB03F31846FFF764FE07F10807BD4680BD01
:4016000080B582B000AF0346FB80FA8848F21C13C1F6FF731B7803FB02F31846FFF750FE07F10807BD4680BD80B584B000AF03463960FB714EF60853CEF200031B68FB60A7
:40164000FB791F2B03D94FF00000FFF795FFFB7903F01F0303F110034FEA8303FA68D3181B68BB60FB7903F01F0303F110034FEA8303FA68D3183A681A60BB68184607F19C
:401680001007BD4680BD00BF80B582B000AF02460B46FA71BB71BB79072B03D94FF00000FFF76AFFFB791F2B03D94FF00000FFF763FFFB7903F01F0303F1604303F56443FE
:4016C000BA794FEA4212D2B21A7007F10807BD4680BD00BF80B582B000AFFFF7FBFD0346FB7144F2A033C4F2000344F2A032C4F200021278D2B242F00802D2B21A7044F24D
:40170000B033C4F2000344F2B032C4F200021278D2B242F00802D2B21A70FB791846FFF7DDFD07F10807BD4680BD00BF80B584B000AF78600B46FB704FF00003FB731DE0E4
:401740004FF00100FFF75CFF00E000BF44F22273C4F200031B78DBB203F00103002BEFD0FB7B7A68D21844F22073C4F200031B78DBB21370FB7B03F10103FB73FA7BFB7889
:401780009A42E2D3FB7B184607F11007BD4680BD80B485B000AF396013460246FA71BB804FF00703FB6044F22273C4F200031B78DBB203F00203002B3ED044F22073C4F285
:4017C00000034FF0B6021A7044F22073C4F200034FF0D5021A7044F22073C4F200034FF002021A7044F22273C4F200031B78DBB203F00203002B1BD144F22073C4F20003BF
:40180000FA791A704FF000037B810CE044F22073C4F200037A8939688A1812781A707B8903F101037B817A89BB889A42EED306E04FF00903FB6002E04FF00403FB60FB6858
:40184000184607F11407BD4680BC704780B485B000AFF871B980BA71FB704FF00703FB6044F22273C4F200031B78DBB203F00203002B46D044F22073C4F200034FF0B602B7
:401880001A7044F22073C4F200034FF0D8021A7044F22073C4F200034FF005021A7044F22273C4F200031B78DBB203F00203002B23D144F22073C4F20003FA791A7044F2B7
:4018C0002073C4F20003BA884FEA122292B2D2B21A7044F22073C4F20003BA88D2B21A7044F22073C4F20003BA791A7044F22073C4F20003FA781A7006E04FF00903FB6080
:4019000002E04FF00403FB60FB68184607F11407BD4680BC704700BF80B485B000AF0346FB714FF00703FB6044F22273C4F200031B78DBB203F00203002B29D044F22073A1
:40194000C4F200034FF0B6021A7044F22073C4F200034FF0E1021A7044F22073C4F200034FF00E021A7044F22273C4F200031B78DBB203F00203002B06D144F22073C4F287
:401980000003FA791A7006E04FF00903FB6002E04FF00403FB60FB68184607F11407BD4680BC704780B582B000AF4FF004037B60FFF790FC0346FB7048F24813C1F6FF7323
:4019C0001B78002B28D148F24813C1F6FF734FF001021A704FF000037B604FF00403C4F208031B6803F00103002B15D04FF00403C4F208034FF00402C4F20802126822F060
:401A000001021A6000BF00BF00BF48F24C13C1F6FF734FF001021A60FB781846FFF75EFC7B68184607F10807BD4680BD80B582B000AFFFF74FFC0346FB7148F24813C1F66D
:401A4000FF734FF000021A7048F24C13C1F6FF731B68012B15D14FF00403C4F208034FF00402C4F20802126842F001021A6000BF00BF00BF48F24C13C1F6FF734FF000025D
:401A80001A60FB791846FFF729FC07F10807BD4680BD00BF80B400AF45F24113C4F200031B78DBB24FEAD313DBB21846BD4680BC704700BF80B500AF62B64FF000004FF039
:401AC000020100F0DFF848F25013C1F6FF734FF001021A7080BD00BF80B500AF4FF0010000F078FC80BD00BF80B586B000AFF8607A600A467A817B727B7A9BB21A464FEAAB
:401B00008202D3184FEA43037B824FF00200F9684FF0400200F06AFB07E04FF00100FFF74BFD7B8A03F1FF337B824FF0020000F009FB0346002B02D17B8A002BEDD14FF00C
:401B4000020000F0FFFA0346002B03D14FF010037B6105E07B687A891A804FF000037B617B69184607F11807BD4680BD80B586B000AFF8607A600A467A817B727B7A9BB222
:401B80001A464FEA8202D3184FEA43037B827B89402B02D94FF040037B8148F25013C1F6FF731B78002B21D007E04FF00100FFF703FD7B8A03F1FF337B8200F095FA034657
:401BC000002B02D17B8A002BEFD100F08DFA0346002B17D000F094FAFFF77EFF48F25013C1F6FF734FF000021A700BE000F088FA0346002B06D000F077FA0346002B01D056
:401C0000FFF76AFF7B7A9BB21A464FEA8202D3184FEA43037B8207E04FF00100FFF7CCFC7B8A03F1FF337B824FF0010000F08AFA0346012B02D07B8A002BEDD14FF0010049
:401C400000F080FA0346012B0ED17B894FF00100F9681A4600F072FB03461A467B681A804FF000037B6106E07B684FF000021A804FF010037B617B69184607F11807BD46D2
:401C800080BD00BF80B582B000AF02460B46FA71BB7148F25113C1F6FF731B78002B08D100F012F848F25113C1F6FF734FF001021A70FA79BB791046194600F013F907F1A7
:401CC0000807BD4680BD00BF80B582B000AFFFF701FB0346FB7144F2A533C4F2000344F2A532C4F200021278D2B242F00102D2B21A7044F2B533C4F2000344F2B532C4F292
:401D000000021278D2B242F00102D2B21A7046F29D03C4F200034FF001021A7046F20903C4F200034FF002021A7046F21003C4F2000346F21002C4F200021278D2B202F023
:401D40007F02D2B21A704FF00000FFF759FC44F29433C4F2000344F29432C4F200021278D2B222F00602D2B21A7046F21203C4F2000346F21202C4F200021278D2B222F080
:401D80002002D2B21A7044F29433C4F2000344F29432C4F200021278D2B242F00102D2B21A704FF00100FFF72BFC4FF02800FFF727FC45F2F813C4F2000345F2F812C4F269
:401DC00000021278D2B202F07F02D2B21A7045F2F813C4F2000345F2F812C4F200021278D2B222F04002D2B21A7044F29433C4F2000344F29432C4F200021278D2B242F044
:401E00000202D2B21A704FF00200FFF7F9FB44F29433C4F2000344F29432C4F200021278D2B242F00402D2B21A7046F28403C4F200034FF000021A7046F28503C4F20003EB
:401E40004FF000021A70FB791846FFF747FA4FF0170042F65151C0F20001FFF7E5FB4FF017004FF00701FFF70FFC4FF0150042F64551C0F20001FFF7D7FB4FF015004FF007
:401E80000701FFF701FC4FF0180042F24D41C0F20001FFF7C9FB4FF018004FF00701FFF7F3FB4FF0000042F65D41C0F20001FFF7BBFB4FF000004FF00701FFF7E5FB4FF010
:401EC000010042F6D141C0F20001FFF7ADFB4FF001004FF00701FFF7D7FB07F10807BD4680BD00BF80B584B000AF02460B46FA71BB714FF00003FB730BE0FA7B48F2FC1350
:401F0000C1F6FF734FF001019954FB7B03F10103FB73FB7B002BF0D04FF46143CEF200034FF400021A604FF46143CEF200034FF080721A604FF46143CEF200034FF0010263
:401F40001A604FF46143CEF200034FF002021A6048F27613C1F6FF734FF000021A70BB79002B02D0012B08D00FE046F20903C4F200034FF002021A700FE046F20903C4F2F2
:401F800000034FF003021A7007E046F20903C4F200034FF003021A7000BF48F27013C1F6FF73FA791A7048F27513C1F6FF734FF000021A7048F27113C1F6FF734FF000021E
:401FC0001A7048F27413C1F6FF734FF000021A7048F25C13C1F6FF734FF000021A7048F27313C1F6FF734FF000021A7048F2ED13C1F6FF734FF000021A7046F22803C4F20A
:4020000000034FF003021A7046F20803C4F200034FF080021A704FF00100FFF751F946F21203C4F200034FF004021A7007F11007BD4680BD80B483B000AF4FF00003FB7120
:402040000BE0FA7948F2FC13C1F6FF734FF001019954FB7903F10103FB71FB79002BF0D048F27613C1F6FF734FF000021A7048F27513C1F6FF734FF000021A7048F2711300
:40208000C1F6FF734FF000021A7048F27413C1F6FF734FF000021A7048F25C13C1F6FF734FF000021A7048F27313C1F6FF734FF000021A7048F2ED13C1F6FF734FF0000282
:4020C0001A7046F22803C4F200034FF003021A7046F20803C4F200034FF080021A7007F10C07BD4680BC704780B400AF48F27513C1F6FF731B78DBB21846BD4680BC7047E2
:4021000080B483B000AF4FF00003FB7148F27413C1F6FF731B78DBB2002B0CD048F27413C1F6FF731B78FB7148F27413C1F6FF734FF000021A70FB79184607F10C07BD464C
:4021400080BC704780B483B000AF0346FB71F97948F28012C1F6FF720B464FEA43035B184FEA8303D3185B78DBB2184607F10C07BD4680BC704700BF80B485B000AF03466F
:40218000FB714FF00003FB81FB79002B27D0FB79082B24D8FB7903F1FF33DBB24FEA03137B737A7B46F20C03C4F20003D3181B78DBB203F00F03FB81FB894FEA03239AB2A8
:4021C000797B46F20D03C4F20003CB181B78DBB213439BB2FB81FB89A3F10203FB81FB89184607F11407BD4680BC704790B484B000AF396013460246FA71BB80FB79002B9E
:4022000000F09680FB79082B00F29280FB7903F1FF33DBB24FEA03137B737A7B46F28803C4F20003D318BB60B888F97948F28012C1F6FF720B464FEA43035B184FEA83036A
:40224000D318DB889BB2C3F50073984210D9F97948F28012C1F6FF720B464FEA43035B184FEA8303D318DB889BB2C3F50073BB807A7B46F20C03C4F20003D3181846BB88EB
:402280004FEA13239BB2DCB2F97948F28012C1F6FF720B464FEA43035B184FEA8303D318DB78DBB22343DBB203707A7B46F20D03C4F20003D318BA88D2B21A703B68002B3C
:4022C00011D04FF00003FB8109E0FB893A68D3181A78BB681A70FB8903F10103FB81FA89BB889A42F1D3F97948F28012C1F6FF720B464FEA43035B184FEA8303D3184FF016
:4023000000025A707A7B46F20E03C4F20003D3181846F97948F28012C1F6FF720B464FEA43035B184FEA8303D3185B79DBB2037007F11007BD4690BC704700BF80B586B02B
:4023400000AF396013460246FA71BB80FB79002B37D0FB79082B34D83B68002B31D0FB7903F1FF33DBB24FEA03137B757A7D46F28803C4F20003D3183B61FB791846FFF77E
:40238000FBFE0346FB81BA88FB899A4201D9FB89BB804FF00003FB820AE0FB8A3A68D3183A691278D2B21A70FB8A03F10103FB82FA8ABB889A42F0D3FB79184600F00AF80A
:4023C00002E04FF00003BB80BB88184607F11807BD4680BD80B485B000AF0346FB71FB79002B2ED0FB79082B2BD8FB7903F1FF33DBB24FEA0313FB73F97948F28012C1F699
:40240000FF720B464FEA43035B184FEA8303D3184FF000025A70FA7B46F20E03C4F20003D3181846F97948F28012C1F6FF720B464FEA43035B184FEA8303D3185B79DBB2BF
:40244000037007F11407BD4680BC704780B582B000AF46F22803C4F200031B78BB71BB7903F01003002B00F08C804FF00103FB71BB795BB2002B18DABB7903F00F03012B1C
:4024800003D04FF00003FB7122E000F07FF848F25D13C1F6FF731B78DBB2DBB25BB2002B16DA4FF00003FB7112E0BB7903F04003002B02D000F0BEF80AE0BB7903F02003A9
:4024C000002B02D000F0DEF802E04FF00003FB71FB79002B55D046F22803C4F200031B78BB71BB795BB2002B4BDB48F27213C1F6FF731B78DAB248F2EE13C1F6FF731B785A
:40250000DBB21343BB7146F22903C4F20003BA791A7046F22903C4F200031B78DBB2BA799A422ED148F25D13C1F6FF731B78FB7146F22803C4F200031B78DBB223F07F03C4
:40254000BB71BB79002B13D146F22803C4F2000348F25D12C1F6FF721278D2B21A7046F22803C4F200031B78DBB203F00F03FB7148F25D13C1F6FF731B78DBB2FA799A4278
:40258000D0D107F10807BD4680BD00BF80B582B000AF46F22803C4F200031B78FB7146F22803C4F20003FA791A7046F22803C4F200031B78FB71FB795BB2002B06DA48F249
:4025C0005D13C1F6FF73FA791A702EE04FF0020000F0F4FA4FF4C043C4F200031B78DBB203F06003202B08D0402B0BD0002B0ED100F032FE0346FB710DE002F059F80346E2
:40260000FB7108E002F032F80346FB7103E04FF00003FB7100BFFB79002B06D148F25D13C1F6FF734FF003021A7007F10807BD4680BD00BF80B500AF48F27613C1F6FF7338
:402640001B78DBB2062B1AD801A252F823F000BF7F2600007F2600006D2600007F260000732600007F2600007926000000F04AF906E000F037FA03E000F06EFA00E000BFE5
:4026800080BD00BF80B500AF48F27613C1F6FF731B78DBB2062B23D801A252F823F000BFE1260000E1260000BD260000E1260000C3260000E1260000C926000000F028F95B
:4026C0000FE000F091F90CE04FF0030000F076FA48F25D13C1F6FF734FF003021A7000E000BF80BD80B483B000AF4FF00003FB7148F2ED13C1F6FF731B78DBB21A4648F285
:40270000F013C1F6FF731B889BB2D3189AB248F2F013C1F6FF731A802BE0FB7903F1804303F5C0431A4648F26413C1F6FF735B681B78DBB2137048F26413C1F6FF735B68D8
:4027400003F1010248F26413C1F6FF735A60FB7903F10103FB7148F26413C1F6FF731B889BB203F1FF339AB248F26413C1F6FF731A8048F26413C1F6FF731B889BB2002B51
:4027800002D0FB79072BC8D948F2ED13C1F6FF731B78DBB2082B02D0FB79002B1ED048F27213C1F6FF731B78DBB283F07F036FEA0303DAB248F27213C1F6FF731A7048F257
:4027C0005D13C1F6FF734FF00F021A7048F27613C1F6FF734FF002021A700DE048F25D13C1F6FF734FF002021A7048F27613C1F6FF734FF002021A7048F2ED13C1F6FF7304
:40280000FA791A7048F2EE13C1F6FF73FA791A7007F10C07BD4680BC704700BF80B582B000AF48F26413C1F6FF731B889BB2002B02D100F03BF832E048F27613C1F6FF737B
:402840004FF002021A7048F27213C1F6FF734FF000021A7000F0DEF946F20703C4F200031B78DBB24FEA03239AB246F20603C4F200031B78DBB213439BB2FB8048F2641362
:40288000C1F6FF731B889BB2FA889A4205D248F26413C1F6FF73FA881A80FFF723FF4FF00103184607F10807BD4680BD80B400AF48F27613C1F6FF734FF002021A7048F2FE
:4028C0007213C1F6FF734FF080021A7048F25D13C1F6FF734FF00F021A7048F2ED13C1F6FF734FF000021A7048F2EE13C1F6FF734FF000021A704FF001031846BD4680BCF5
:40290000704700BF80B500AFFFF7ECFE80BD00BF80B500AF48F2ED13C1F6FF731B78DBB21A4648F2F013C1F6FF731B889BB2D3189AB248F2F013C1F6FF731A8048F276134A
:40294000C1F6FF734FF000021A704FF0010000F035F948F25D13C1F6FF734FF003021A7080BD00BF80B582B000AF48F27613C1F6FF734FF004021A7048F27213C1F6FF73AF
:402980004FF080021A7000F045F946F20703C4F200031B78DBB24FEA03239AB246F20603C4F200031B78DBB213439BB2FB8048F26413C1F6FF731B889BB2FA889A4205D2A1
:4029C00048F26413C1F6FF73FA881A8048F25D13C1F6FF734FF00B021A704FF00103184607F10807BD4680BD80B483B000AF4FF00003BB7146F22903C4F200031B78DBB28F
:402A000003F00F03DBB2A3F10203FB71FB799AB248F2F013C1F6FF731B889BB2D3189AB248F2F013C1F6FF731A802EE048F26413C1F6FF735A68BB7903F1804303F5C04322
:402A40001B78DBB2137048F26413C1F6FF735B6803F1010248F26413C1F6FF735A60BB7903F10103BB71FB7903F1FF33FB7148F26413C1F6FF731B889BB203F1FF339AB2F1
:402A800048F26413C1F6FF731A8048F26413C1F6FF731B889BB2002B02D0FB79002BC5D148F2EE13C1F6FF73FA791A7048F27213C1F6FF731B78DBB283F07F036FEA0303E9
:402AC000DAB248F27213C1F6FF731A7048F25D13C1F6FF734FF00B021A7007F10C07BD4680BC704780B500AF48F27613C1F6FF734FF000021A704FF0010000F05FF848F2D2
:402B00005D13C1F6FF734FF003021A7080BD00BF80B400AF48F27613C1F6FF734FF006021A7048F25D13C1F6FF734FF006021A7048F27213C1F6FF734FF080021A7048F281
:402B4000EE13C1F6FF734FF000021A704FF001031846BD4680BC704780B500AF48F25C13C1F6FF731B78DBB2002B14D046F20803C4F2000348F25C12C1F6FF721278D2B20A
:402B800062F07F02D2B21A7048F25C13C1F6FF734FF000021A7048F27613C1F6FF734FF000021A704FF0010000F008F848F25D13C1F6FF734FF003021A7080BD80B483B06B
:402BC00000AF0346FB7148F26413C1F6FF739B68002B19D048F26413C1F6FF739B68FA791A7048F26413C1F6FF739A6848F2F013C1F6FF731B889BB2538048F26413C1F639
:402C0000FF734FF000029A6007F10C07BD4680BC704700BF80B400AF48F2F013C1F6FF734FF000021A8048F26413C1F6FF739B68002B0FD048F26413C1F6FF739B684FF000
:402C400000021A7048F26413C1F6FF739B684FF000025A80BD4680BC704700BF80B400AF46F20E03C4F200031B7848F28013C1F6FF731B7BDBB203F00303012B0FD048F24C
:402C80008013C1F6FF73DB7BDBB283F07F036FEA0303DAB248F28013C1F6FF73DA7348F28013C1F6FF734FF001025A7346F20B03C4F2000346F20B02C4F200021278D2B243
:402CC00022F00102D2B21A70BD4680BC704700BF80B400AF46F21E03C4F200031B7848F28013C1F6FF731B7EDBB203F00303012B0FD048F28013C1F6FF73DB7EDBB283F005
:402D00007F036FEA0303DAB248F28013C1F6FF73DA7648F28013C1F6FF734FF001025A7646F20B03C4F2000346F20B02C4F200021278D2B222F00202D2B21A70BD4680BC6B
:402D4000704700BF80B400AFBD4680BC704700BF80B500AFFFF76EF980BD00BF80B582B000AF4FF00003FB7146F20403C4F200031B78BB714FF4C043C4F200031B78DBB26E
:402D8000DBB25BB2002B80F29C8046F20103C4F200031B78DBB203F1FF33052B00F2248101A252F823F000BF232E0000432E00008B2E0000E92F0000E92F0000C12D000066
:402DC00046F20303C4F200031B78DBB2212B0FD100F022F948F26413C1F6FF731B889BB2002B00F00381FFF719FD0346FB71FDE046F20303C4F200031B78DBB2222B40F0EA
:402E0000F58000F053F948F26413C1F6FF731B889BB2002B00F0EA80FFF700FD0346FB71E4E000F099F948F26413C1F6FF731B889BB2002B00F0DC80FFF7F0FC0346FB71CC
:402E4000D6E0BB79002B40F0D58046F20203C4F200031B78DBB2002B40F0CC8048F26413C1F6FF734FF001021A80BA7948F2F413C1F6FF73D21848F26413C1F6FF735A602A
:402E8000FFF7CCFC0346FB71B4E0BB79002B40F0B38048F26413C1F6FF734FF001021A80BA7948F2FC13C1F6FF73D21848F26413C1F6FF735A60FFF7B1FC0346FB7100BF59
:402EC0009AE04FF4C043C4F200031B78DBB2DBB25BB2002BC0F2998046F20103C4F200031B78DBB2092B07D0092BC0F287800A2B11D00B2B5AD075E000F02EF948F2641309
:402F0000C1F6FF731B889BB2002B79D0FFF72AFD0346FB7174E0BB79002B73D146F20203C4F200031B78DBB2002B6BD1BA7946F20303C4F200031B78D9B248F2F413C1F67E
:402F4000FF739954BA7948F2F413C1F6FF739B5CDAB2B97948F2F813C1F6FF735B5CDBB29A4208D2BA7948F2F813C1F6FF734FF00001995415E0BA7948F2F813C1F6FF73D4
:402F80009B5CDBB2012B0CD9BA79B97948F2F413C1F6FF735B5CD9B248F2F813C1F6FF739954FFF7B5FD0346FB712BE0BB79002B2AD146F20203C4F200031B78DBB2012B0C
:402FC00022D8BA7946F20203C4F200031B78D9B248F2FC13C1F6FF739954FFF799FD0346FB7111E000BF09E000BF0EE000BF0CE000BF0AE000BF08E000BF06E000BF04E067
:4030000000BF02E000BF00E000BFFB79184607F10807BD4680BD00BF80B584B000AF48F27513C1F6FF731B78DBB203F1FF33DBB2184601F0E9F8F86046F20403C4F2000363
:403040001B78FB72FB7A03F102034FEAC303FA68D318FB60FB685B68FB60FA7A48F26013C1F6FF739B5CDBB24FEAC303FA68D318FB60FB685B68FB60FB6803F12003FB60EF
:40308000FB685B687B607B681B78DBB21A4648F26413C1F6FF731A8048F26413C1F6FF737A685A6007F11007BD4680BD80B584B000AF48F27513C1F6FF731B78DBB203F15C
:4030C000FF33DBB2184601F09FF8F86046F20403C4F200031B78FB72FB7A03F102034FEAC303FA68D318FB60FB685B68FB60FA7A48F26013C1F6FF739B5CDBB24FEAC30378
:40310000FA68D318FB60FB685B68FB60FB6803F11803FB60FB685B687B607B6803F101031B78DBB24FEA03239AB27B681B78DBB213439BB29AB248F26413C1F6FF731A808C
:403140007B6803F1020248F26413C1F6FF735A6007F11007BD4680BD80B584B000AF48F26413C1F6FF734FF000021A8048F27513C1F6FF731B78DBB203F1FF33DBB21846A8
:4031800001F042F8F86046F20303C4F200031B78FB7246F20403C4F200031B78BB72BB7A03F102034FEAC303FA68D318FB60FB685B68FB60BB7A002B49D1BA7A48F260132C
:4031C000C1F6FF739B5CDBB24FEAC303FA68D318FB60FB685B68FB60FB7A002B37D0FB7A032B34D8FB7A03F1FF334FEAC303FA68D318FB6046F20203C4F200031B78FB726C
:40320000FB681B78FA7A9A4221D8FB685B687B60FA7A13464FEA43039B184FEA83037A68D3187B607B685A6848F26413C1F6FF735A607B681A8848F26413C1F6FF731A80B6
:403240007B689A6848F26413C1F6FF739A6007F11007BD4680BD00BF80B586B000AF4FF00003FB754FF000033B6148F26413C1F6FF734FF000021A804FF4C043C4F2000329
:403280001B78DBB2DBB25BB2002B80F2818146F20103C4F200031B78DBB20A2B00F2E38201A252F823F000BF553400006738000067380000673800006738000067380000B1
:4032C000D5320000673800002B350000673800005535000046F20303C4F200031B78DBB2012B15D100F0C0FFB860BB685A6848F26413C1F6FF735A6048F26413C1F6FF735C
:403300004FF012021A80FFF789FA0346FB75ACE246F20303C4F200031B78DBB2022B36D146F20203C4F200031B78DBB2184600F06BFFB860BB68002B00F09782BB685A6873
:4033400048F26413C1F6FF735A6048F26413C1F6FF735B6803F103031B78DBB24FEA03239AB248F26413C1F6FF735B6803F102031B78DBB213439BB29AB248F26413C1F64A
:40338000FF731A80FFF74AFA0346FB756DE246F20303C4F200031B78DBB2032B55D14FF00003FB7344F6F403C0F200033B610AE03B691B78FB71FB793A69D3183B61FB7B81
:4033C00003F10103FB7346F20203C4F200031B78DBB2FA7B9A4204D23B691B78DBB2002BE6D146F20203C4F200031B78DBB2002B11D046F20203C4F200031B78DAB244F613
:40340000B403C0F200031B7C9A4204D144F64C13C0F200033B613B691B78DBB2002B00F024823B691B78DBB21A4648F26413C1F6FF731A8048F26413C1F6FF733A695A609A
:40344000FFF7ECF90346FB750FE201F031F90346FB750AE24FF4C043C4F200031B78DBB203F00303002B37D0022B5CD148F26413C1F6FF734FF002021A8046F20403C4F2B7
:4034800000031B78DBB203F07F0148F28012C1F6FF720B464FEA43035B184FEA8303D3189B78DAB248F25413C1F6FF731A7048F25413C1F6FF734FF000025A7048F264131C
:4034C000C1F6FF7348F25412C1F6FF725A60FFF7A5F90346FB7527E048F26413C1F6FF734FF002021A8048F27313C1F6FF731B78DAB248F25413C1F6FF731A7048F2541319
:40350000C1F6FF734FF000025A7048F26413C1F6FF7348F25412C1F6FF725A60FFF77EF90346FB7500E000BFA6E148F26413C1F6FF734FF001021A8048F26413C1F6FF731F
:4035400048F27512C1F6FF725A60FFF767F90346FB7591E148F26413C1F6FF734FF001021A8046F20403C4F200031B78DBB21A4648F26013C1F6FF73D21848F26413C1F6D1
:40358000FF735A60FFF74AF90346FB7500BF73E146F20103C4F200031B78DBB203F1FF330A2B00F2648101A252F823F0C73600006F380000973700006F380000D93500006C
:4035C0006F3800006F3800006F380000F93500006F3800006D36000046F20203C4F200031B78DAB248F25C13C1F6FF731A70FFF78FFA0346FB753FE146F20203C4F200039F
:403600001B78BB71BB79002B07D0BB7903F1FF33DBB2184600F0F8FDB860BB79002B02D0BB68002B03D1BB79002B40F0228148F27513C1F6FF731B78DBB2BA799A4210D0D4
:4036400048F27513C1F6FF73BA791A7048F27413C1F6FF734FF001021A704FF0010000F013FAFFF755FA0346FB7502E100F0B6FF0346002B00F0FF8046F20403C4F200034E
:403680001B787B7148F27113C1F6FF737A791A7048F27413C1F6FF734FF001021A7000F009FC7A79797948F26013C1F6FF735B5CD9B248F2EC13C1F6FF739954FFF728FA18
:4036C0000346FB75D7E04FF4C043C4F200031B78DBB203F00303012B2BD0012B0ED3022B52D146F20203C4F200031B78DBB2002B4BD100F091FE0346FB7546E046F20203C6
:40370000C4F200031B78DBB2012B40D148F27313C1F6FF731B78DBB223F00203DAB248F27313C1F6FF731A70FFF7F2F90346FB752DE046F20403C4F200031B78DBB2002B69
:4037400027D146F20403C4F200031B78DBB21A46194648F27813C1F6FF735B5CD9B246F20203C4F200031B78DBB26FEA0303DBB20B40D9B248F27813C1F6FF739954FFF7A1
:40378000C7F90346FB7504E004E000BF02E000BF00E000BF70E04FF4C043C4F200031B78DBB203F00303012B2BD0012B0ED3022B52D146F20203C4F200031B78DBB2002B9C
:4037C0004BD100F091FD0346FB7546E046F20203C4F200031B78DBB2012B40D148F27313C1F6FF731B78DBB243F00203DAB248F27313C1F6FF731A70FFF78AF90346FB758B
:403800002DE046F20403C4F200031B78DBB2002B27D146F20403C4F200031B78DBB21A46194648F27813C1F6FF735B5CD9B246F20203C4F200031B78DBB26FEA0303DBB237
:403840000B40D9B248F27813C1F6FF739954FFF75FF90346FB7504E004E000BF02E000BF00E000BF08E000BF06E000BF04E000BF02E000BF00E000BFFB7D184607F11807AD
:40388000BD4680BD80B483B000AF4FF00103FB714FF00003BB71E5E0BB7903F1804303F5C1434FF00C021A70F97948F28012C1F6FF720B464FEA43035B184FEA8303D318BF
:4038C0005B79DBB2002B25D0F97948F28012C1F6FF720B464FEA43035B184FEA8303D3181B79DBB2DBB25BB2002B09DABA7946F20E03C4F20003D3184FF00C021A7012E042
:40390000BA7946F20E03C4F20003D3184FF008021A7008E0BA7946F20E03C4F20003D3184FF080021A70BA7946F20C03C4F20003D3181846F97948F28012C1F6FF720B460E
:403940004FEA43035B184FEA8303D31803F108031B889BB24FEA13239BB2DBB20370BA7946F20D03C4F20003D3181846F97948F28012C1F6FF720B464FEA43035B184FEAA1
:403980008303D31803F108031B889BB2DBB20370BA7946F28603C4F20003D3181846F97948F28012C1F6FF720B464FEA43035B184FEA8303D318DB889BB2DBB20370BA797B
:4039C00046F28703C4F20003D3181846F97948F28012C1F6FF720B464FEA43035B184FEA8303D318DB889BB24FEA13239BB2DBB20370BA7946F28403C4F20003D318184650
:403A0000F97948F28012C1F6FF720B464FEA43035B184FEA8303D318DB889BB2DBB20370BA7946F28503C4F20003D3181846F97948F28012C1F6FF720B464FEA43035B18E5
:403A40004FEA8303D318DB889BB24FEA13239BB2DBB20370FB7903F10103FB71BB7903F11003BB71BB795BB2002BBFF615AF46F20A03C4F200034FF0FF021A7007F10C0739
:403A8000BD4680BC704700BF80B588B000AF0346FB714FF000037B834FF00003FB7770E0F97F48F28012C1F6FF720B464FEA43035B184FEA8303D3184FF000021A70F97FA0
:403AC00048F28012C1F6FF720B464FEA43035B184FEA8303D3184FF000029A70F97F48F28012C1F6FF720B464FEA43035B184FEA8303D3184FF000025A70F97F48F28012F2
:403B0000C1F6FF720B464FEA43035B184FEA8303D3184FF00002DA70F97F48F28012C1F6FF720B464FEA43035B184FEA8303D3184FF000025A71F97F48F28012C1F6FF7214
:403B40000B464FEA43035B184FEA8303D31803F108034FF000021A80F97F48F28012C1F6FF720B464FEA43035B184FEA8303D31803F108034FF000029A70FB7F03F1010369
:403B8000FB77FB7F082B8BD9FB79002B1AD04FF000037B7713E07A7F48F26013C1F6FF734FF0000199547A7F48F2EC13C1F6FF734FF0000199547B7F03F101037B777B7F70
:403BC000002BE8D048F27513C1F6FF731B78DBB2002B00F06B8148F27513C1F6FF731B78DBB203F1FF33DBB2184600F00DFB38613B695B68FB60FB6803F107031B7803F07A
:403C00004003002B0ED048F27313C1F6FF731B78DBB243F00103DAB248F27313C1F6FF731A700DE048F27313C1F6FF731B78DBB223F00103DAB248F27313C1F6FF731A70ED
:403C40003B6903F108033B613B691B78FB774FF001037B77C8E03B695B687B614FF00003BB77B8E07A7F7B699B7803F07F039A4240F0A980797F48F28012C1F6FF720B4659
:403C80004FEA43035B184FEA8303D31803F108031B889AB27B699B889A4211D2797F7B69988848F28012C1F6FF720B464FEA43035B184FEA8303D31803F1080302461A80F6
:403CC0007B691B781A4648F26013C1F6FF739B5CDAB27B695B789A4275D17B69DB7803F00303FB727B699B78DBB25BB2002B25DA797F48F28012C1F6FF720B464FEA4303A7
:403D00005B184FEA8303D3184FF001025A70787FFB7A012B02D14FF0070101E04FF00D0148F28012C1F6FF7203464FEA43031B184FEA8303D3180A465A7124E0797F48F290
:403D40008012C1F6FF720B464FEA43035B184FEA8303D3184FF000025A70787FFB7A012B02D14FF0050101E04FF0090148F28012C1F6FF7203464FEA43031B184FEA830309
:403D8000D3180A465A71797F7B69987848F28012C1F6FF720B464FEA43035B184FEA8303D31802461A71797F7B69D87848F28012C1F6FF720B464FEA43035B184FEA83033B
:403DC000D31802461A707B6903F108037B61BB7F03F10103BB77BA7FFB7F9A42FFF442AF7B7F03F101037B777B7F082B7FF633AF3B695B687B614FF000037B771CE07B69B1
:403E00009B7803F07F017B69187848F28012C1F6FF720B464FEA43035B184FEA8303D31803F1080302469A707B6903F108037B617B7F03F101037B777A7FFB7F9A42DED3B3
:403E400000F026FA024648F27C13C1F6FF731A604FF00103FB7724E0F97F48F28012C1F6FF720B464FEA43035B184FEA8303D3187A8BDA80F97F48F28012C1F6FF720B4650
:403E80004FEA43035B184FEA8303D31803F108031B889AB27B8BD3187B83FB7F03F10103FB77FB7F082BD7D9FFF7ECFC07F12007BD4680BD80B584B000AF48F27513C1F67A
:403EC000FF731B78DBB2002B00F0998148F27513C1F6FF731B78DBB203F1FF33DBB2184600F092F978607B6803F108037B607B681B78FB707B685B68BB604FF00003FB737D
:403F000078E1BB681B781A4648F26013C1F6FF739B5CDAB2BB681B78194648F2EC13C1F6FF735B5CDBB29A4200F05C81BB681B781A4648F26013C1F6FF739B5CDAB2BB68C3
:403F40005B789A4240F04E81BB681A7846F20403C4F200031B78DBB29A4240F04381BB689B7803F07F03BB70BB7803F1FF33DBB24FEA03137B70BB68DB7803F003033B70E6
:403F8000BB689B78DBB25BB2002B25DAB97848F28012C1F6FF720B464FEA43035B184FEA8303D3184FF001025A70B8783B78012B02D14FF0070101E04FF00D0148F28012C6
:403FC000C1F6FF7203464FEA43031B184FEA8303D3180A465A7124E0B97848F28012C1F6FF720B464FEA43035B184FEA8303D3184FF000025A70B8783B78012B02D14FF097
:40400000050101E04FF0090148F28012C1F6FF7203464FEA43031B184FEA8303D3180A465A717A7846F20E03C4F20003D3184FF001021A70B978BB68988848F28012C1F6FA
:40404000FF720B464FEA43035B184FEA8303D31803F1080302461A80B978BB68987848F28012C1F6FF720B464FEA43035B184FEA8303D31802461A71B978BB68D87848F20B
:404080008012C1F6FF720B464FEA43035B184FEA8303D31802461A70B97848F28012C1F6FF720B464FEA43035B184FEA8303D3184FF00002DA707A7846F20C03C4F20003F8
:4040C000D3181846B97848F28012C1F6FF720B464FEA43035B184FEA8303D31803F108031B889BB24FEA13239BB2DBB203707A7846F20D03C4F20003D3181846B97848F213
:404100008012C1F6FF720B464FEA43035B184FEA8303D31803F108031B889BB2DBB203707A7846F28603C4F20003D3181846B97848F28012C1F6FF720B464FEA43035B18CC
:404140004FEA8303D318DB889BB2DBB203707A7846F28703C4F20003D3181846B97848F28012C1F6FF720B464FEA43035B184FEA8303D318DB889BB24FEA13239BB2DBB224
:4041800003707A7846F28403C4F20003D3181846B97848F28012C1F6FF720B464FEA43035B184FEA8303D318DB889BB2DBB203707A7846F28503C4F20003D3181846B97832
:4041C00048F28012C1F6FF720B464FEA43035B184FEA8303D318DB889BB24FEA13239BB2DBB20370BB6803F10803BB60FB7B03F10103FB73FA7BFB789A42FFF482AE07F17A
:404200001007BD4680BD00BF80B485B000AF0346FB7148F27013C1F6FF731B78DBB244F60C22C0F200024FEAC303D3185B68FB60FB6803F10803FB60FB681B78FA799A426F
:4042400003D34FF00003FB6006E0FB794FEAC303FA68D3185B68FB60FB68184607F11407BD4680BC704700BF80B400AF48F27013C1F6FF731B78DBB244F60C22C0F2000279
:404280004FEAC303D3185B681846BD4680BC704780B584B000AF48F27513C1F6FF731B78DBB203F1FF33DBB21846FFF7ADFFB860BB68002B0FD0BB685B681B79FB71FB7988
:4042C00003F102034FEAC303BA68D318BB60BB685B68FB6002E04FF00003FB60FB68184607F11007BD4680BD80B582B000AF4FF00003FB7146F20403C4F200031B78DBB2F2
:4043000003F07F03BB71BB7903F1FF33DBB24FEA03137B71BB79002B78D0BB79082B75D8B979B87948F28012C1F6FF7203464FEA43031B184FEA8303D3189B78DBB243F090
:404340000103D8B248F28012C1F6FF720B464FEA43035B184FEA8303D31802469A70B97948F28012C1F6FF720B464FEA43035B184FEA8303D3184FF00002DA70B979B8797B
:4043800048F28012C1F6FF7203464FEA43031B184FEA8303D3185B78DBB243F00203D8B248F28012C1F6FF720B464FEA43035B184FEA8303D31802465A70B97948F2801251
:4043C000C1F6FF720B464FEA43035B184FEA8303D3181B79DBB2DBB25BB2002B09DA7A7946F20E03C4F20003D3184FF08D021A7008E07A7946F20E03C4F20003D3184FF0A0
:4044000089021A70FEF784FB0346FB71FB79184607F10807BD4680BD80B582B000AF4FF00003FB7146F20403C4F200031B78DBB203F07F03BB71BB7903F1FF33DBB24FEA88
:4044400003137B71BB79002B00F0C180BB79082B00F2BD80B979B87948F28012C1F6FF7203464FEA43031B184FEA8303D3189B78DBB223F00103D8B248F28012C1F6FF72E3
:404480000B464FEA43035B184FEA8303D31802469A70B97948F28012C1F6FF720B464FEA43035B184FEA8303D3184FF00002DA707A7946F20C03C4F20003D3181A467979EF
:4044C00046F20C03C4F20003CB181B78DBB203F07F03DBB21370B979B87948F28012C1F6FF7203464FEA43031B184FEA8303D3185B78DBB223F00203D8B248F28012C1F6B3
:40450000FF720B464FEA43035B184FEA8303D31802465A70B97948F28012C1F6FF720B464FEA43035B184FEA8303D3181B79DBB2DBB25BB2002B23DAB97948F28012C1F660
:40454000FF720B464FEA43035B184FEA8303D3185B78DBB2012B09D17A7946F20E03C4F20003D3184FF00C021A702CE07A7946F20E03C4F20003D3184FF00D021A7022E0FA
:40458000B97948F28012C1F6FF720B464FEA43035B184FEA8303D3185B78DBB2012B09D17A7946F20E03C4F20003D3184FF008021A7008E07A7946F20E03C4F20003D31807
:4045C0004FF009021A70FEF7A3FA0346FB71FB79184607F10807BD4680BD00BF80B584B000AF4FF00103FB7346F20403C4F200031B78BB7348F27513C1F6FF731B78DBB23B
:4046000003F1FF33DBB21846FFF7FEFDB860BB685B681B79FB71BA7BFB799A4202D2BB7B002B03D04FF00003FB7318E0BA7BB97B48F26013C1F6FF735B5CD9B248F2EC138B
:40464000C1F6FF739954BA7B46F20203C4F200031B78D9B248F26013C1F6FF739954FB7B184607F11007BD4680BD00BF80B483B000AF4FF00003FB714FF4C043C4F2000373
:404680001B78DBB2DBB25BB2002B09DA46F20103C4F200031B78DBB2012B00D000E000BFFB79184607F10C07BD4680BC704700BF80B582B000AF4FF00003FB714FF00003EA
:4046C000BB714FF4C043C4F200031B78DBB203F00303012B02D0022B07D01EE046F20403C4F200031B78BB7118E046F20403C4F200031B78DBB203F07F0148F28012C1F6B9
:40470000FF720B464FEA43035B184FEA8303D31803F108039B78BB7100E000BF48F27C13C1F6FF731A68BB79D3181B78022B0AD0032B02D0012B08D004E0FEF70FFB0346E1
:40474000FB7103E002E000BF00E000BFFB79184607F10807BD4680BD38B50E4D0E4B0024E81A8510AC4205D00B4951F8242090470134F7E700F04EF90849094A541AA510A9
:404780000024AC4205D0054B53F8240080470134F7E738BD204A0000204A0000204A0000284A000010B50023934203D0CC5CC4540133F9E710BD82180346934202D003F89E
:4047C000011BFAE77047000065000000684A00000000000000510040400050510040200000000140001000140140000800400140000A004C014000020050014020000000A3
:4048000001450040035200400107014001090140040A0140010B01400117014001190140034001400241014004420140044301400347014003480140024C01400151014029
:404840007E02248061017C40EE08AF20B820BE10D804DF011F20EE0AEE0A33803640CC30A640A7805320A640A780D420A640A780AF20EE1008080F40C20CAE40AF80EE5098
:40488000AC08AF40000A00000100000101000100000000000000000000000000C00000008000800080000000000000006930122E001401011201000200000008B4041DB76F
:4048C00001300102800100000902290001010280FA090400000203000002092111010001222400070501034000010705820340000100000004030904280345006D00620044
:404900006500640069007400200045006C0065006300740072006F006E006900630073002803500053006F004300200035004C005000200042006F006F0074006C006F0036
:404940006100640065007200000000000A0330003300300031000000240005010900A1000900A1000900150025FF7508954091020900150025FF750895408102C0C000008E
:40498000410000000482FF1F0082FF1F410000004882FF1F8C82FF1F0000000080490000000000008C4900000000000000000000010000005849000001000000DA480000BA
:4049C0000100000098490000000001034000030000008203400003000300000001000000C848000002000000C849000001000000C049000000000000D84900000100000073
:404A0000B448000001000000DC49000001000000FC490000F8B500BFF8BC08BC9E4670475500000091010000F8B500BFF8BC08BC9E46704731000000484A00000881FF1FBF
:404A4000200000006801000000000000C8470000CC47000000366E01C05D0000180000000000E02E00000000000000000000000000000000000000000000000000000000A3
:404A800000000000000000000000000000000000000000000000000000000000000000000000000000000000000000000000000000000000000000000000000000000000F6
:404AC00000000000000000000000000000000000000000000000000000000000000000000000000000000000000000000000000000000000000000000000000000000000B6
:404B000000800020114B0000B97B0000B97B000080B500AF03F054F810B5054C237833B9044810B10448AFF300800121217010BDA881FF1F00000000D437010008B5064BF5
:404B40001BB106480649AFF300800648016811B1054A02B1904708BD00000000D4370100AC81FF1F0881FF1F0000000080B590B000AF62B601F006FA00E000BF0AF036F8A1
:404B80000346002BF9D007F13003184601F032FA0346002BF1D007F130023B461046194601F02EFB3B46184602F0F0FFE5E700BF80B485B000AF78607B684FEA1363FB7328
:404BC0007B6803F47F034FEA1343BB737B6803F47F434FEA13237B737B683B7348F2C413C1F6FF733A7B1A7048F2C413C1F6FF737A7B5A7048F2C413C1F6FF73BA7B9A7027
:404C000048F2C413C1F6FF73FA7BDA7007F11407BD4680BC704700BF80B584B000AF3B600346FB710B46BB711346BB804FF00003FB73FB790B2B56D00B2B11DC052B36D061
:404C4000052B06DC022B24D0042B29D0012B19D08AE0092B39D0092B3EDC062B2ED083E00F2B5CD00F2B04DC0D2B4AD00D2B4FDC40E0112B6BD0112B58DB122B5DD0FF2B6E
:404C80006FD071E0BA79BB881046194600F072F86AE0BA79BB881046194600F023F963E0BA79BB881046194600F0B0F95CE0BA79BB881046194600F009FA55E0BA79BB8852
:404CC0001046194600F062FA4EE0BA79BB881046194600F0D5FA47E0BA79BB881046194600F03EFB40E0BA79BB881046194600F0A7FB39E0BA79BB881046194600F010FC03
:404D000032E0BA79BB881046194600F079FC2BE0BA79BB881046194600F0E2FC24E0BA79BB881046194600F04BFD1DE0BA79BB881046194600F0B4FD16E0BA79BB881046DB
:404D400019463A6801F0B0F80346FB730CE0BA79BB88104619463A6800F012FE0346FB7302E00DF03FF800BFFB7B184607F11007BD4680BD80B584B000AF02460B46FA715E
:404D8000BB804FF0FF33FB604FF00003FB72FB79152B00F29D8001A252F823F0F54D0000FB4D0000014E00005B4E0000614E0000D14E0000D14E0000674E0000D14E000037
:404DC000D14E00007B4E0000D14E0000D14E00008B4E00009B4E0000A54E0000AF4E0000D14E0000D14E0000D14E0000C34E0000C94E000004F0C8FD6AE004F0E3FD67E038
:404E0000BB8803F1FF33072B61D801A252F823F0314E00003B4E0000CF4E0000454E0000CF4E0000CF4E0000CF4E00004F4E00004FF0000004F0D6FE0EE04FF0010004F0C9
:404E4000D1FE09E04FF0020004F0CCFE04E04FF0030004F0C7FE00BF39E004F0E7FE37E004F0F8FE34E04FF0010004F007FF0346FB604FF00103FB722AE004F029FF0346D9
:404E8000FB604FF00103FB7222E005F025FA0346FB604FF00103FB721AE0BB88184604F083FF15E0BB88184604F08EFF10E0BB88184604F099FF0346FB604FF00103FB72E4
:404EC00006E005F04BFA03E005F08AFA00E000BFFB7A002B02D0F868FFF76AFE07F11007BD4680BD80B584B000AF02460B46FA71BB804FF0FF33FB604FF00003FB72FB79D2
:404F0000112B79D801A252F823F000BF554F00005B4F0000F94F0000614F00008F4F0000954F0000F94F0000F94F00009B4F0000F94F0000AF4F0000BF4F0000CB4F000035
:404F4000D74F0000F94F0000F94F0000ED4F0000F34F000004F070F84EE004F057F94BE0BB880A2B08D00C2B0BD0082B0ED14FF0080004F0A1F909E04FF00A0004F09CF900
:404F800004E04FF00C0004F097F900BF34E004F0C3F931E004F0D4F92EE04FF0010004F0E3F90346FB604FF00103FB7224E004F001FA0346FB604FF00103FB721CE0BB88F1
:404FC0001BB2184604F012FA16E0BB881BB2184604F066FA10E0BB881BB2184604F078FA0346FB604FF00103FB7205E004F0CAFA02E004F0F7FA00BFFB7A002B02D0F868C1
:40500000FFF7D6FD07F11007BD4680BD80B584B000AF02460B46FA71BB804FF0FF33FB604FF00003FB72FB79062B45D801A252F823F000BF51500000575000005D50000010
:405040007F500000A1500000AD500000B350000007F01CFB30E007F033FB2DE0BB88002B02D0012B05D009E04FF0000007F04AFB04E04FF0020007F045FB00BF1CE0BB8821
:40508000002B02D0012B05D009E04FF0000007F063FB04E04FF0040007F05EFB00BF0BE0BB88DBB2184607F081FB05E007F014FC02E007F031FC00BFFB7A002B02D0F86830
:4050C000FFF776FD07F11007BD4680BD80B584B000AF02460B46FA71BB804FF0FF33FB604FF00003FB72FB79062B45D801A252F823F000BF11510000175100001D5100006D
:405100003F510000615100006D5100007351000003F034FE30E003F04BFE2DE0BB88002B02D0012B05D009E04FF0000003F062FE04E04FF0020003F05DFE00BF1CE0BB8800
:40514000002B02D0012B05D009E04FF0000003F07BFE04E04FF0040003F076FE00BF0BE0BB88DBB2184603F099FE05E003F02CFF02E003F049FF00BFFB7A002B02D0F868FC
:40518000FFF716FD07F11007BD4680BD80B584B000AF02460B46FA71BB804FF0FF33FB604FF00003FB72FB79072B5ED801A252F823F000BFD5510000DB510000E1510000A6
:4051C0000352000025520000535200005F5200006552000007F08AF847E007F0A1F844E0BB88002B02D0012B05D009E04FF0000007F0B8F804E04FF0020007F0B3F800BFEC
:4052000033E0BB88002B02D0012B05D009E04FF0000007F0D1F804E04FF0040007F0CCF800BF22E0BB88012B08D0022B0BD0002B0ED14FF0000007F0E9F809E04FF00400F3
:4052400007F0E4F804E04FF0080007F0DFF800BF0BE0BB88DBB2184607F002F905E007F0A1F902E007F0BEF900BFFB7A002B02D0F868FFF79DFC07F11007BD4680BD00BF64
:4052800080B584B000AF02460B46FA71BB804FF0FF33FB604FF00003FB72FB790E2B2ED00E2B0BDC012B1AD0012B02DC002B13D04CE00C2B16D00D2B19D047E0192B2ED050
:4052C000192B04DC0F2B1FD0182B25D03EE01A2B28D0FF2B29D039E003F046FB36E003F0CBFB33E0BB88184603F00AFC2EE003F07FFC0346FB604FF00103FB7226E0BB88C9
:40530000184603F00DFC21E003F066FC0346FB604FF00103FB7219E003F0E4FB16E003F0C3FC13E003F0E0FC10E0BB8803F1FF339BB218464FF0010103F006FA03F0F8FA17
:405340000346FB604FF00103FB7200BFFB7A002B02D0F868FFF72CFC07F11007BD4680BD80B584B000AF02460B46FA71BB804FF0FF33FB604FF00003FB72FB790E2B2ED05E
:405380000E2B0BDC012B1AD0012B02DC002B13D04CE00C2B16D00D2B19D047E0192B2ED0192B04DC0F2B1FD0182B25D03EE01A2B28D0FF2B29D039E005F032F836E005F086
:4053C000B7F833E0BB88184605F0F6F82EE005F06BF90346FB604FF00103FB7226E0BB88184605F0F9F821E005F052F90346FB604FF00103FB7219E005F0D0F816E005F0E9
:40540000AFF913E005F0CCF910E0BB8803F1FF339BB218464FF0010103F096F903F088FA0346FB604FF00103FB7200BFFB7A002B02D0F868FFF7BCFB07F11007BD4680BDFA
:4054400080B584B000AF02460B46FA71BB804FF0FF33FB604FF00003FB72FB790E2B2ED00E2B0BDC012B1AD0012B02DC002B13D04CE00C2B16D00D2B19D047E0192B2ED08E
:40548000192B04DC0F2B1FD0182B25D03EE01A2B28D0FF2B29D039E005F090F936E005F015FA33E0BB88184605F054FA2EE005F0C9FA0346FB604FF00103FB7226E0BB88DE
:4054C000184605F057FA21E005F0B0FA0346FB604FF00103FB7219E005F02EFA16E005F00DFB13E005F02AFB10E0BB8803F1FF339BB218464FF0010107F026FA07F018FB98
:405500000346FB604FF00103FB7200BFFB7A002B02D0F868FFF74CFB07F11007BD4680BD80B584B000AF02460B46FA71BB804FF0FF33FB604FF00003FB72FB790E2B2ED07D
:405540000E2B0BDC012B1AD0012B02DC002B13D04CE00C2B16D00D2B19D047E0192B2ED0192B04DC0F2B1FD0182B25D03EE01A2B28D0FF2B29D039E005F0EEFA36E005F006
:4055800073FB33E0BB88184605F0B2FB2EE005F027FC0346FB604FF00103FB7226E0BB88184605F0B5FB21E005F00EFC0346FB604FF00103FB7219E005F08CFB16E005F0AD
:4055C0006BFC13E005F088FC10E0BB8803F1FF339BB218464FF0010107F0B6F907F0A8FA0346FB604FF00103FB7200BFFB7A002B02D0F868FFF7DCFA07F11007BD4680BD54
:4056000080B584B000AF02460B46FA71BB804FF0FF33FB604FF00003FB72FB790E2B2ED00E2B0BDC012B1AD0012B02DC002B13D04CE00C2B16D00D2B19D047E0192B2ED0CC
:40564000192B04DC0F2B1FD0182B25D03EE01A2B28D0FF2B29D039E005F04CFC36E005F0D1FC33E0BB88184605F010FD2EE005F085FD0346FB604FF00103FB7226E0BB8821
:40568000184605F013FD21E005F06CFD0346FB604FF00103FB7219E005F0EAFC16E005F0C9FD13E005F0E6FD10E0BB8803F1FF339BB218464FF0010107F056FA07F048FBBE
:4056C0000346FB604FF00103FB7200BFFB7A002B02D0F868FFF76CFA07F11007BD4680BD80B584B000AF02460B46FA71BB804FF0FF33FB604FF00003FB72FB790E2B2ED09D
:405700000E2B0BDC012B1AD0012B02DC002B13D04CE00C2B16D00D2B19D047E0192B2ED0192B04DC0F2B1FD0182B25D03EE01A2B28D0FF2B29D039E005F0AAFD36E005F085
:405740002FFE33E0BB88184605F06EFE2EE005F0E3FE0346FB604FF00103FB7226E0BB88184605F071FE21E005F0CAFE0346FB604FF00103FB7219E005F048FE16E005F073
:4057800027FF13E005F044FF10E0BB8803F1FF339BB218464FF0010107F0E6F907F0D8FA0346FB604FF00103FB7200BFFB7A002B02D0F868FFF7FCF907F11007BD4680BD95
:4057C00080B584B000AF02460B46FA71BB804FF0FF33FB604FF00003FB72FB790E2B2ED00E2B0BDC012B1AD0012B02DC002B13D04CE00C2B16D00D2B19D047E0192B2ED00B
:40580000192B04DC0F2B1FD0182B25D03EE01A2B28D0FF2B29D039E005F008FF36E005F08DFF33E0BB88184605F0CCFF2EE006F041F80346FB604FF00103FB7226E0BB886B
:40584000184605F0CFFF21E006F028F80346FB604FF00103FB7219E005F0A6FF16E006F085F813E006F0A2F810E0BB8803F1FF339BB218464FF0010107F086FA07F078FBF7
:405880000346FB604FF00103FB7200BFFB7A002B02D0F868FFF78CF907F11007BD4680BD80B584B000AF02460B46FA71BB804FF0FF33FB604FF00003FB72FB790E2B2ED0BC
:4058C0000E2B0BDC012B1AD0012B02DC002B13D04CE00C2B16D00D2B19D047E0192B2ED0192B04DC0F2B1FD0182B25D03EE01A2B28D0FF2B29D039E006F066F836E006F00B
:40590000EBF833E0BB88184606F02AF92EE006F09FF90346FB604FF00103FB7226E0BB88184606F02DF921E006F086F90346FB604FF00103FB7219E006F004F916E006F062
:40594000E3F913E006F000FA10E0BB8803F1FF339BB218464FF0010107F016FA07F008FB0346FB604FF00103FB7200BFFB7A002B02D0F868FFF71CF907F11007BD4680BDE3
:4059800080B586B000AF0B463A600246FA71BB80BB88DBB203F00103BB74BB884FEA53039BB2DBB203F007037B74BB884FEA13139BB2DBB203F00F033B74BB884FEA132384
:4059C0009BB2DBB203F00F03FB734FF00003FB823B684FF0FF321A604FF000037B754FF000033B754FF00003FB74FB79012B4ED0032B00F0D280002B40F050823B7CA3F193
:405A000002030A2B00F2458201A252F823F000BF3D5A0000935E0000515A0000655A0000935E0000935E0000935E0000935E0000935E0000935E0000795A000008F0FEF95A
:405A400003461A463B681A604FF001037B751DE008F0FCFA03461A463B681A604FF001037B7513E008F07AFB03461A463B681A604FF001037B7509E008F0B8F803461A46B6
:405A80003B681A604FF001037B7500BF01E23B7CA3F102030A2B2DD801A252F823F000BFCD5A0000F55A0000D75A0000E15A0000F55A0000F55A0000F55A0000F55A00008D
:405AC000F55A0000F55A0000EB5A000008F0D2F90346FB740EE008F0D5FA0346FB7409E008F058FB0346FB7404E008F09BF80346FB7400BFBB7C012B0AD17B7C4FF0010292
:405B000002FA03F3DAB2FB7C1343DBB23B750FE0BB7C002B0CD17B7C4FF0010202FA03F3DBB26FEA0303DAB2FB7C1340DBB23B753B7CA3F102030A2B00F2AD8101A252F873
:405B400023F000BF715B0000975E00007B5B0000855B0000975E0000975E0000975E0000975E0000975E0000975E00008F5B00003B7D184608F06EF90EE03B7D184608F0C3
:405B800071FA09E03B7D184608F0F4FA04E03B7D184608F037F800BF7DE1FB7B03F1FF33072B33D801A252F823F000BFCD5B0000D55B0000DD5B0000E55B0000ED5B0000A7
:405BC000F55B0000FD5B0000055C00004FF00003FB821BE04FF00203FB8217E04FF00403FB8213E04FF00603FB820FE04FF00803FB820BE04FF00A03FB8207E04FF00C0310
:405C0000FB8203E04FF00E03FB8200BF3B7CA3F102030A2B00F2418101A252F823F000BF4D5C00009B5E0000DF5C00005F5D00007F5E00009B5E00009B5E00009B5E00001F
:405C40009B5E00009B5E0000EF5D00007B7C072B00F2178101A252F823F000BF7D5C0000895C0000955C0000A15C0000AD5C0000B95C0000C55C0000D15C0000FB8ADBB24A
:405C8000184607F0DBFF29E0FB8ADBB2184607F0F5FF23E0FB8ADBB2184608F00FF81DE0FB8ADBB2184608F0A9F817E0FB8ADBB2184608F083F811E0FB8ADBB2184608F0A6
:405CC0005DF80BE0FB8ADBB2184608F037F805E0FB8ADBB2184608F011F800BFD1E07B7C062B00F2D08001A252F823F0095D0000155D0000215D00002D5D0000395D000027
:405D0000455D0000515D0000FB8ADBB2184608F0BDF823E0FB8ADBB2184608F077F91DE0FB8ADBB2184608F051F917E0FB8ADBB2184608F02BF911E0FB8ADBB2184608F090
:405D400005F90BE0FB8ADBB2184608F0DFF805E0FB8ADBB2184608F0B9F800BF93E07B7C072B00F2928001A252F823F08D5D0000995D0000A55D0000B15D0000BD5D000094
:405D8000C95D0000D55D0000E15D0000FB8ADBB2184608F083F929E0FB8ADBB2184608F085FA23E0FB8ADBB2184608F05FFA1DE0FB8ADBB2184608F039FA17E0FB8ADBB214
:405DC000184608F013FA11E0FB8ADBB2184608F0EDF90BE0FB8ADBB2184608F09FF905E0FB8ADBB2184608F079F900BF4DE07B7C072B4CD801A252F823F000BF1D5E0000E4
:405E0000295E0000355E0000415E00004D5E0000595E0000655E0000715E0000FB8ADBB2184602F031FC29E0FB8ADBB2184602F0EBFB23E0FB8ADBB2184602F005FC1DE072
:405E4000FB8ADBB2184602F03FFC17E0FB8ADBB2184602F059FC11E0FB8ADBB2184607F065FE0BE0FB8ADBB2184607F07FFE05E0FB8ADBB2184607F099FE00BF07E000BF05
:405E800006E000BF04E000BF02E000BF00E000BF03E000BF02E000BF00E000BF7B7D184607F11807BD4680BD80B584B000AF0B463A600246FA71BB804FF00003FB7306F034
:405EC00033F9FB79002B02D0FB79012B11D106F04FF94FF0000006F057F9BB88184606F06BF903461A463B681A6006F047F906F037F9FB79032B3ED801A252F823F000BF2C
:405F0000115F0000195F0000375F0000455F00004FF00103FB732EE03B681B689BB21BB2184606F085F903461A463B681A604FF00103FB731FE0BB88184606F05DF906F015
:405F40000FF918E0BB880A2B08D00C2B0BD0082B0ED14FF0080006F05DF909E04FF00A0006F058F904E04FF00C0006F053F900BF06F0F6F800BFFB7B184607F11007BD46E8
:405F800080BD00BF80B500AF4FF000004FF0010108F0ACF900BF08F0C7FB0346002BFAD008F0C6FD0AF0FAFD43F2E070C0F201000AF060FE43F2E870C0F201000AF05AFE5F
:405FC0000BF094FF4FF004004FF000014FF000024FF00003FEF720FE4FF005004FF000014FF000024FF00003FEF716FE0CF04EF880BD00BF90B595B000AF786043F6100052
:40600000C0F201000AF036FE786808F009FE034687F84E3043F62C00C0F201000AF02AFE4FF0000387F84F301FE097F84F307A68D3181B7807F10C02104643F64001C0F2EB
:4060400001011A460CF0C0FF034687F84D3007F10C0297F84D30104619460AF02FFE97F84F3003F1010387F84F3097F84F2097F84E309A42D9D343F64400C0F201000AF00F
:40608000F9FD7B681B78FF2B08D043F64800C0F201000AF0EFFD4FF0000334E097F84E3003F1FF337A68D3181C7897F84E3003F1FF33DBB27868194600F02AF803469C4236
:4060C00008D043F65800C0F201000AF0D3FD4FF0000318E07B6803F101031B7897F84E209A4208D043F66C00C0F201000AF0C2FD4FF0000307E043F68800C0F201000AF0B9
:40610000B9FD4FF00103184607F15407BD4690BD80B485B000AF78600B46FB704FF00003FB734FF00003BB730AE0BB7B7A68D3181A78FB7BD318FB73BB7B03F10103BB73EF
:40614000BA7BFB789A42F0D3FB7B184607F11407BD4680BC704700BF80B487B000AFF860B9603B601346FB71FB79FB753FE0BB681B78FA68D318BA681278F9688A18117813
:40618000F879FA7D821A386A20FA02F03A681278C2F1080200FA02F2D2B20A43D2B21A703B681B78FA7D9A420AD23B681A78FB7DD31ADAB23B681A704FF00003FB7516E097
:4061C0003B681B78FA7DD31AFB753B684FF008021A70BB681B7803F10103DAB2BB681A70BB681B78FA68D3184FF000021A70FB7D002BBCD107F11C07BD4680BC704700BF6A
:4062000090B5B3B002AF7860396043F6A000C0F201000AF02FFD4FF0000387F8BE304FF0000387F823307B6803F104031B784FEA03239AB27B6803F105031B7813439BB2EE
:40624000A7F8B430B7F8B43040F20712934201F2008401A050F823F079660000537A0000537A000089660000B1660000E966000021670000537A000059670000696B0000BE
:40628000B16B0000016C0000116D0000416D0000516D0000816D0000B16D0000537A0000C16D00003B6E0000537A0000537A0000537A0000537A0000537A0000537A0000ED
:4062C000537A0000537A0000537A0000537A0000537A0000537A0000537A0000537A0000537A0000537A00006F6E0000537A0000537A0000537A0000537A0000537A0000BE
:40630000537A0000537A0000537A0000537A0000537A0000537A0000537A0000537A0000537A0000537A0000537A0000537A0000537A0000537A0000537A0000537A00008D
:40634000537A0000537A0000537A0000537A0000537A0000537A0000537A0000A96E0000A1700000537A0000537A0000537A0000537A0000537A0000537A0000537A0000BF
:40638000537A0000537A0000537A0000537A0000537A0000537A0000537A0000537A0000537A0000537A0000537A0000537A0000537A0000537A0000537A0000537A00000D
:4063C000537A0000537A0000537A0000537A0000537A0000537A0000537A0000BD720000537A0000537A0000F372000025740000537A0000537A0000537A0000537A000007
:40640000537A0000537A0000537A0000537A0000537A0000537A0000537A0000537A0000537A0000537A0000537A0000537A0000537A0000537A0000537A0000537A00008C
:40644000537A0000537A0000537A0000537A0000537A0000537A0000537A0000537A0000537A0000F1740000537A0000537A0000537A0000537A0000537A0000537A0000B4
:40648000537A0000537A0000537A0000537A0000537A0000537A0000537A0000537A0000537A0000537A0000537A0000537A0000537A0000537A0000537A0000537A00000C
:4064C000537A0000537A0000537A0000537A0000537A0000537A000055760000E5760000537A0000537A0000537A0000537A0000537A0000537A0000537A0000537A000040
:40650000537A0000537A0000537A0000537A0000537A0000537A0000537A0000537A0000537A0000537A0000537A0000537A0000537A0000537A0000537A0000537A00008B
:40654000537A0000537A0000537A0000537A0000537A0000537A0000537A0000537A0000537A0000537A0000537A0000537A0000537A0000537A0000537A0000537A00004B
:40658000537A0000537A0000537A0000537A0000537A0000537A0000537A0000537A0000537A0000537A0000537A0000537A0000537A0000537A0000537A0000537A00000B
:4065C000537A0000537A0000537A0000537A0000537A0000537A000009780000537A000033780000E378000093790000537A0000537A0000537A0000537A0000537A00006C
:40660000537A0000537A0000537A0000537A0000537A0000537A0000537A0000537A0000537A0000537A0000537A0000537A0000537A0000537A0000537A0000537A00008A
:40664000537A0000537A0000537A0000537A0000537A0000537A0000C9790000537A0000537A0000537A0000537A0000537A0000537A0000F379000043F6BC00C0F2010028
:406680000AF0F8FA01F0F5B943F6C400C0F201000AF0F0FA4FF0020387F823304FF0FF0387F824304FF0000387F8253001F0E1B943F6D400C0F201000AF0DCFA4FF004031A
:4066C00087F823304FF0000387F824304FF0000387F825304FF0000387F826304FF0000387F8273001F0C5B943F6F400C0F201000AF0C0FA4FF0040387F823304FF0000311
:4067000087F824304FF0000387F825304FF0250387F826304FF0800387F8273001F0A9B943F60810C0F201000AF0A4FA4FF0040387F823304FF0000387F824304FF000033E
:4067400087F825304FF0250387F826304FF0800387F8273001F08DB943F61810C0F201000AF088FA97F8233007F1C001CB184FF0140203F89C2C97F8233003F10103DBB2AD
:4067800087F8233097F8233007F1C002D3184FF0150203F89C2C97F8233003F10103DBB287F8233097F8233007F1C000C3184FF0160203F89C2C97F8233003F10103DBB238
:4067C00087F8233097F8233007F1C001CB184FF0170203F89C2C97F8233003F10103DBB287F8233097F8233007F1C002D3184FF0180203F89C2C97F8233003F10103DBB2EB
:4068000087F8233097F8233007F1C000C3184FF0190203F89C2C97F8233003F10103DBB287F8233097F8233007F1C001CB184FF01A0203F89C2C97F8233003F10103DBB2B8
:4068400087F8233097F8233007F1C002D3184FF01B0203F89C2C97F8233003F10103DBB287F8233097F8233007F1C000C3184FF0280203F89C2C97F8233003F10103DBB25F
:4068800087F8233097F8233007F1C001CB184FF0290203F89C2C97F8233003F10103DBB287F8233097F8233007F1C002D3184FF02A0203F89C2C97F8233003F10103DBB206
:4068C00087F8233097F8233007F1C000C3184FF02B0203F89C2C97F8233003F10103DBB287F8233097F8233007F1C001CB184FF02C0203F89C2C97F8233003F10103DBB2D4
:4069000087F8233097F8233007F1C002D3184FF02D0203F89C2C97F8233003F10103DBB287F8233097F8233007F1C000C3184FF02E0203F89C2C97F8233003F10103DBB286
:4069400087F8233097F8233007F1C001CB184FF02F0203F89C2C97F8233003F10103DBB287F8233097F8233007F1C002D3184FF0320203F89C2C97F8233003F10103DBB237
:4069800087F8233097F8233007F1C000C3184FF0330203F89C2C97F8233003F10103DBB287F8233097F8233007F1C001CB184FF0340203F89C2C97F8233003F10103DBB203
:4069C00087F8233097F8233007F1C002D3184FF0350203F89C2C97F8233003F10103DBB287F8233097F8233007F1C000C3184FF0360203F89C2C97F8233003F10103DBB2B6
:406A000087F8233097F8233007F1C001CB184FF0370203F89C2C97F8233003F10103DBB287F8233097F8233007F1C002D3184FF0380203F89C2C97F8233003F10103DBB268
:406A400087F8233097F8233007F1C000C3184FF0390203F89C2C97F8233003F10103DBB287F8233097F8233007F1C001CB184FF0780203F89C2C97F8233003F10103DBB2F8
:406A800087F8233097F8233007F1C002D3184FF0790203F89C2C97F8233003F10103DBB287F8233097F8233007F1C000C3184FF07A0203F89C2C97F8233003F10103DBB26D
:406AC00087F8233097F8233007F1C001CB184FF07B0203F89C2C97F8233003F10103DBB287F8233097F8233007F1C002D3184FF07C0203F89C2C97F8233003F10103DBB220
:406B000087F8233097F8233007F1C000C3184FF07D0203F89C2C97F8233003F10103DBB287F8233097F8233007F1C001CB184FF07E0203F89C2C97F8233003F10103DBB2ED
:406B400087F8233097F8233007F1C002D3184FF07F0203F89C2C97F8233003F10103DBB287F8233000F085BF43F62C10C0F201000AF080F84FF00A0387F823304FF00103D1
:406B800087F8BF300EE097F8BF3007F1C000C31897F8BF2003F89C2C97F8BF3003F1010387F8BF3097F8BF300A2BECD900F061BF43F64010C0F201000AF05CF897F823305F
:406BC00007F1C001CB184FF0010203F89C2C97F8233003F10103DBB287F8233097F8233007F1C002D3184FF0020203F89C2C97F8233003F10103DBB287F8233000F039BF0D
:406C000043F65410C0F201000AF034F897F8233007F1C000C3184FF0010203F89C2C97F8233003F10103DBB287F8233097F8233007F1C001CB184FF0020203F89C2C97F818
:406C4000233003F10103DBB287F8233097F8233007F1C002D3184FF0030203F89C2C97F8233003F10103DBB287F8233097F8233007F1C000C3184FF0040203F89C2C97F897
:406C8000233003F10103DBB287F8233097F8233007F1C001CB184FF0050203F89C2C97F8233003F10103DBB287F8233097F8233007F1C002D3184FF0060203F89C2C97F84A
:406CC000233003F10103DBB287F8233097F8233007F1C000C3184FF0070203F89C2C97F8233003F10103DBB287F8233097F8233007F1C001CB184FF0080203F89C2C97F818
:406D0000233003F10103DBB287F8233000F0B1BE43F66810C0F2010009F0ACFF97F8233007F1C002D3184FF0010203F89C2C97F8233003F10103DBB287F8233000F099BE36
:406D400043F67C10C0F2010009F094FF00F091BE43F69010C0F2010009F08CFF97F8233007F1C000C3184FF0010203F89C2C97F8233003F10103DBB287F8233000F079BEE6
:406D800043F6A410C0F2010009F074FF97F8233007F1C001CB184FF0010203F89C2C97F8233003F10103DBB287F8233000F061BE43F6B810C0F2010009F05CFF00F059BEED
:406DC00043F6CC10C0F2010009F054FF4FF0000387F8BF307B6803F106031B7818464FF000014FF000020BF087F8C7F8B0007B6803F107031B7818464FF000014FF0010240
:406E00000BF07AF8C7F8AC00D7F8B030042B0ED0D7F8B030B3F1FF3F09D0D7F8AC30042B05D0D7F8AC30B3F1FF3F40F01D864FF0030387F8BE3000F017BE43F6E410C0F2EF
:406E4000010009F017FF4FF0020387F823304FF40043C4F200031B7887F8243048F20103C4F200031B7887F8253000F002BE43F6FC10C0F2010009F0FDFE07F1240343F6F5
:406E80001022C0F2010292E80300186003F10403198003F102034FEA11421A704FF0060387F8233000F0E5BD43F61820C0F2010009F0E0FE4FF0000387F8BF30E5E097F8A8
:406EC000BF3003F107037A68D3181A784CF6CD43CCF6CC43A3FB02034FEAD30387F8AB3097F8BF3003F107037A68D3181A784CF6CD43CCF6CC43A3FB02134FEAD3010B4608
:406F00004FEA83035B184FEA4303D31A87F8AA307B6803F106031B7803F1070297F8BF304FEAD303DBB2D3187A68D3181B781A4697F8BF3003F0070342FA03F303F0010381
:406F4000002B0CBF0023012387F8A93097F8AB3007F14C02104643F62821C0F201011A460CF032F8034687F8A83007F14C0297F8A8301046194609F0A1FE97F8AA3007F1BF
:406F80004C02104643F63421C0F201011A460CF01BF8034687F8A83007F14C0297F8A8301046194609F08AFE97F8A93007F14C02104643F64021C0F201011A460CF004F84F
:406FC000034687F8A83007F14C0297F8A8301046194609F073FE4FF0110387F8A7304FF0030387F8A6304FF00003A7F8A43097F8A9309BB203F001039AB2B7F8A43013435C
:407000009BB2A7F8A43097F8AA304FEA43039BB203F00E039AB2B7F8A43013439BB2A7F8A43097F8AB304FEA03139BB2DBB29AB2B7F8A43013439BB2A7F8A430B7F8A43077
:4070400043F4E063A7F8A4304FF00003FB6197F8A70097F8A610B7F8A42007F11C03FDF7DBFD4FF0010387F8A63097F8A70097F8A610B7F8A42007F11C03FDF7CDFD97F8CA
:40708000BF3003F1010387F8BF307B6803F106031B7897F8BF209A42FFF411AF00F0E9BC43F65020C0F2010009F0E4FD4FF0000387F8BF30F6E097F8BF3003F106037A685D
:4070C000D3181A784CF6CD43CCF6CC43A3FB02034FEAD30387F8A33097F8BF3003F106037A68D3181A784CF6CD43CCF6CC43A3FB02134FEAD3010B464FEA83035B184FEA73
:407100004303D31A87F8A23097F8A33007F14C02104643F62821C0F201011A460BF054FF034687F8A83007F14C0297F8A8301046194609F0C3FD97F8A23007F14C02104631
:4071400043F66021C0F201011A460BF03DFF034687F8A83007F14C0297F8A8301046194609F0ACFD4FF0110387F8A1304FF0030387F8A0304FF00003A7F89E3097F8A2301F
:407180004FEA43039BB203F00E039AB2B7F89E3013439BB2A7F89E3097F8A3304FEA03139BB2DBB29AB2B7F89E3013439BB2A7F89E30B7F89E3043F40073A7F89E304FF0EF
:4071C0000003BB6197F8A10097F8A010B7F89E2007F11803FDF720FD4FF0000387F8A03097F8A10097F8A010B7F89E2007F11803FDF712FDBB6907F14C02104643F66C2167
:40720000C0F201011A460BF0DFFE034687F8A83007F14C0297F8A8301046194609F04EFD97F8BF3003F00703DBB2002B12D197F8BF304FEAD303DBB207F1C002D3184FF008
